{
  "_format": "hh-sol-artifact-1",
  "contractName": "Uniswap",
  "sourceName": "contracts/Uniswap.sol",
  "abi": [
    {
      "anonymous": false,
      "inputs": [
        {
          "indexed": false,
          "internalType": "uint256",
          "name": "_id",
          "type": "uint256"
        },
        {
          "indexed": false,
          "internalType": "address",
          "name": "_sender",
          "type": "address"
        },
        {
          "indexed": false,
          "internalType": "address",
          "name": "_receiver",
          "type": "address"
        },
        {
          "indexed": false,
          "internalType": "uint256",
          "name": "_txAmount",
          "type": "uint256"
        },
        {
          "indexed": false,
          "internalType": "bytes32",
          "name": "_txHash",
          "type": "bytes32"
        }
      ],
      "name": "SaveTransaction",
      "type": "event"
    },
    {
      "anonymous": false,
      "inputs": [
        {
          "indexed": false,
          "internalType": "address",
          "name": "sender",
          "type": "address"
        },
        {
          "indexed": false,
          "internalType": "address",
          "name": "receiver",
          "type": "address"
        },
        {
          "indexed": false,
          "internalType": "uint256",
          "name": "transferAmount",
          "type": "uint256"
        }
      ],
      "name": "SendEth",
      "type": "event"
    },
    {
      "inputs": [],
      "name": "getReceivers",
      "outputs": [
        {
          "components": [
            {
              "internalType": "uint256",
              "name": "id",
              "type": "uint256"
            },
            {
              "internalType": "address",
              "name": "sender",
              "type": "address"
            },
            {
              "internalType": "address",
              "name": "receiver",
              "type": "address"
            },
            {
              "internalType": "uint256",
              "name": "txAmount",
              "type": "uint256"
            },
            {
              "internalType": "bytes32",
              "name": "txHash",
              "type": "bytes32"
            },
            {
              "internalType": "uint256",
              "name": "timeStamp",
              "type": "uint256"
            }
          ],
          "internalType": "struct Uniswap.Transaction[]",
          "name": "",
          "type": "tuple[]"
        }
      ],
      "stateMutability": "view",
      "type": "function"
    },
    {
      "inputs": [],
      "name": "getTransfers",
      "outputs": [
        {
          "components": [
            {
              "internalType": "uint256",
              "name": "id",
              "type": "uint256"
            },
            {
              "internalType": "address",
              "name": "sender",
              "type": "address"
            },
            {
              "internalType": "address",
              "name": "receiver",
              "type": "address"
            },
            {
              "internalType": "uint256",
              "name": "txAmount",
              "type": "uint256"
            },
            {
              "internalType": "bytes32",
              "name": "txHash",
              "type": "bytes32"
            },
            {
              "internalType": "uint256",
              "name": "timeStamp",
              "type": "uint256"
            }
          ],
          "internalType": "struct Uniswap.Transaction[]",
          "name": "",
          "type": "tuple[]"
        }
      ],
      "stateMutability": "view",
      "type": "function"
    },
    {
      "inputs": [],
      "name": "name",
      "outputs": [
        {
          "internalType": "string",
          "name": "",
          "type": "string"
        }
      ],
      "stateMutability": "view",
      "type": "function"
    },
    {
      "inputs": [
        {
          "internalType": "address",
          "name": "_receiver",
          "type": "address"
        }
      ],
      "name": "sendEth",
      "outputs": [],
      "stateMutability": "payable",
      "type": "function"
    },
    {
      "inputs": [],
      "name": "symbol",
      "outputs": [
        {
          "internalType": "string",
          "name": "",
          "type": "string"
        }
      ],
      "stateMutability": "view",
      "type": "function"
    },
    {
      "inputs": [],
      "name": "transactionCount",
      "outputs": [
        {
          "internalType": "uint256",
          "name": "",
          "type": "uint256"
        }
      ],
      "stateMutability": "view",
      "type": "function"
    }
  ],
  "bytecode": "0x60806040526040518060400160405280600781526020017f556e6973776170000000000000000000000000000000000000000000000000008152506000908051906020019062000051929190620000b9565b506040518060400160405280600b81526020017f556e697377617044415050000000000000000000000000000000000000000000815250600190805190602001906200009f929190620000b9565b506000600255348015620000b257600080fd5b50620001ce565b828054620000c79062000169565b90600052602060002090601f016020900481019282620000eb576000855562000137565b82601f106200010657805160ff191683800117855562000137565b8280016001018555821562000137579182015b828111156200013657825182559160200191906001019062000119565b5b5090506200014691906200014a565b5090565b5b80821115620001655760008160009055506001016200014b565b5090565b600060028204905060018216806200018257607f821691505b602082108114156200019957620001986200019f565b5b50919050565b7f4e487b7100000000000000000000000000000000000000000000000000000000600052602260045260246000fd5b6110d680620001de6000396000f3fe6080604052600436106100555760003560e01c806306fdde031461005a5780632f65142c1461008557806376a54c60146100b057806395d89b41146100cc578063b77bf600146100f7578063e061646b14610122575b600080fd5b34801561006657600080fd5b5061006f61014d565b60405161007c9190610df8565b60405180910390f35b34801561009157600080fd5b5061009a6101db565b6040516100a79190610dd6565b60405180910390f35b6100ca60048036038101906100c59190610bcf565b61050b565b005b3480156100d857600080fd5b506100e1610791565b6040516100ee9190610df8565b60405180910390f35b34801561010357600080fd5b5061010c61081f565b6040516101199190610e3a565b60405180910390f35b34801561012e57600080fd5b50610137610825565b6040516101449190610dd6565b60405180910390f35b6000805461015a90610f76565b80601f016020809104026020016040519081016040528092919081815260200182805461018690610f76565b80156101d35780601f106101a8576101008083540402835291602001916101d3565b820191906000526020600020905b8154815290600101906020018083116101b657829003601f168201915b505050505081565b6060600073ffffffffffffffffffffffffffffffffffffffff163373ffffffffffffffffffffffffffffffffffffffff16141561021757600080fd5b60008060005b6002548110156102b3573373ffffffffffffffffffffffffffffffffffffffff166003600083815260200190815260200160002060010160009054906101000a900473ffffffffffffffffffffffffffffffffffffffff1673ffffffffffffffffffffffffffffffffffffffff1614156102a057828061029c90610fa8565b9350505b80806102ab90610fa8565b91505061021d565b5060008267ffffffffffffffff8111156102f6577f4e487b7100000000000000000000000000000000000000000000000000000000600052604160045260246000fd5b60405190808252806020026020018201604052801561032f57816020015b61031c610b55565b8152602001906001900390816103145790505b50905060005b600254811015610501573373ffffffffffffffffffffffffffffffffffffffff166003600083815260200190815260200160002060010160009054906101000a900473ffffffffffffffffffffffffffffffffffffffff1673ffffffffffffffffffffffffffffffffffffffff1614156104ee57600360008281526020019081526020016000206040518060c0016040529081600082015481526020016001820160009054906101000a900473ffffffffffffffffffffffffffffffffffffffff1673ffffffffffffffffffffffffffffffffffffffff1673ffffffffffffffffffffffffffffffffffffffff1681526020016002820160009054906101000a900473ffffffffffffffffffffffffffffffffffffffff1673ffffffffffffffffffffffffffffffffffffffff1673ffffffffffffffffffffffffffffffffffffffff16815260200160038201548152602001600482015481526020016005820154815250508284815181106104d4577f4e487b7100000000000000000000000000000000000000000000000000000000600052603260045260246000fd5b602002602001018190525082806104ea90610fa8565b9350505b80806104f990610fa8565b915050610335565b5080935050505090565b600073ffffffffffffffffffffffffffffffffffffffff163373ffffffffffffffffffffffffffffffffffffffff16141561054557600080fd5b60003411610588576040517f08c379a000000000000000000000000000000000000000000000000000000000815260040161057f90610e1a565b60405180910390fd5b8073ffffffffffffffffffffffffffffffffffffffff166108fc349081150290604051600060405180830381858888f193505050501580156105ce573d6000803e3d6000fd5b506040518060c0016040528060025481526020013373ffffffffffffffffffffffffffffffffffffffff1681526020018273ffffffffffffffffffffffffffffffffffffffff16815260200134815260200143408152602001428152506003600060025481526020019081526020016000206000820151816000015560208201518160010160006101000a81548173ffffffffffffffffffffffffffffffffffffffff021916908373ffffffffffffffffffffffffffffffffffffffff16021790555060408201518160020160006101000a81548173ffffffffffffffffffffffffffffffffffffffff021916908373ffffffffffffffffffffffffffffffffffffffff160217905550606082015181600301556080820151816004015560a082015181600501559050507f5cd5a8cab7b48295c005c6808ff34169eda9109e829f03041bd9eb07e913853233823460405161072c93929190610d9f565b60405180910390a17fa316acd48c2b89a2bb5ca58ae2627951aeb947674e0b8cb1fb19111edaa98245600254338334434060405161076e959493929190610e55565b60405180910390a16002600081548092919061078990610fa8565b919050555050565b6001805461079e90610f76565b80601f01602080910402602001604051908101604052809291908181526020018280546107ca90610f76565b80156108175780601f106107ec57610100808354040283529160200191610817565b820191906000526020600020905b8154815290600101906020018083116107fa57829003601f168201915b505050505081565b60025481565b6060600073ffffffffffffffffffffffffffffffffffffffff163373ffffffffffffffffffffffffffffffffffffffff16141561086157600080fd5b60008060005b6002548110156108fd573373ffffffffffffffffffffffffffffffffffffffff166003600083815260200190815260200160002060020160009054906101000a900473ffffffffffffffffffffffffffffffffffffffff1673ffffffffffffffffffffffffffffffffffffffff1614156108ea5782806108e690610fa8565b9350505b80806108f590610fa8565b915050610867565b5060008267ffffffffffffffff811115610940577f4e487b7100000000000000000000000000000000000000000000000000000000600052604160045260246000fd5b60405190808252806020026020018201604052801561097957816020015b610966610b55565b81526020019060019003908161095e5790505b50905060005b600254811015610b4b573373ffffffffffffffffffffffffffffffffffffffff166003600083815260200190815260200160002060020160009054906101000a900473ffffffffffffffffffffffffffffffffffffffff1673ffffffffffffffffffffffffffffffffffffffff161415610b3857600360008281526020019081526020016000206040518060c0016040529081600082015481526020016001820160009054906101000a900473ffffffffffffffffffffffffffffffffffffffff1673ffffffffffffffffffffffffffffffffffffffff1673ffffffffffffffffffffffffffffffffffffffff1681526020016002820160009054906101000a900473ffffffffffffffffffffffffffffffffffffffff1673ffffffffffffffffffffffffffffffffffffffff1673ffffffffffffffffffffffffffffffffffffffff1681526020016003820154815260200160048201548152602001600582015481525050828481518110610b1e577f4e487b7100000000000000000000000000000000000000000000000000000000600052603260045260246000fd5b60200260200101819052508280610b3490610fa8565b9350505b8080610b4390610fa8565b91505061097f565b5080935050505090565b6040518060c0016040528060008152602001600073ffffffffffffffffffffffffffffffffffffffff168152602001600073ffffffffffffffffffffffffffffffffffffffff1681526020016000815260200160008019168152602001600081525090565b600081359050610bc981611089565b92915050565b600060208284031215610be157600080fd5b6000610bef84828501610bba565b91505092915050565b6000610c048383610d06565b60c08301905092915050565b610c1981610efd565b82525050565b610c2881610efd565b82525050565b6000610c3982610eb8565b610c438185610edb565b9350610c4e83610ea8565b8060005b83811015610c7f578151610c668882610bf8565b9750610c7183610ece565b925050600181019050610c52565b5085935050505092915050565b610c9581610f0f565b82525050565b610ca481610f0f565b82525050565b6000610cb582610ec3565b610cbf8185610eec565b9350610ccf818560208601610f43565b610cd88161104f565b840191505092915050565b6000610cf0602083610eec565b9150610cfb82611060565b602082019050919050565b60c082016000820151610d1c6000850182610d81565b506020820151610d2f6020850182610c10565b506040820151610d426040850182610c10565b506060820151610d556060850182610d81565b506080820151610d686080850182610c8c565b5060a0820151610d7b60a0850182610d81565b50505050565b610d8a81610f39565b82525050565b610d9981610f39565b82525050565b6000606082019050610db46000830186610c1f565b610dc16020830185610c1f565b610dce6040830184610d90565b949350505050565b60006020820190508181036000830152610df08184610c2e565b905092915050565b60006020820190508181036000830152610e128184610caa565b905092915050565b60006020820190508181036000830152610e3381610ce3565b9050919050565b6000602082019050610e4f6000830184610d90565b92915050565b600060a082019050610e6a6000830188610d90565b610e776020830187610c1f565b610e846040830186610c1f565b610e916060830185610d90565b610e9e6080830184610c9b565b9695505050505050565b6000819050602082019050919050565b600081519050919050565b600081519050919050565b6000602082019050919050565b600082825260208201905092915050565b600082825260208201905092915050565b6000610f0882610f19565b9050919050565b6000819050919050565b600073ffffffffffffffffffffffffffffffffffffffff82169050919050565b6000819050919050565b60005b83811015610f61578082015181840152602081019050610f46565b83811115610f70576000848401525b50505050565b60006002820490506001821680610f8e57607f821691505b60208210811415610fa257610fa1611020565b5b50919050565b6000610fb382610f39565b91507fffffffffffffffffffffffffffffffffffffffffffffffffffffffffffffffff821415610fe657610fe5610ff1565b5b600182019050919050565b7f4e487b7100000000000000000000000000000000000000000000000000000000600052601160045260246000fd5b7f4e487b7100000000000000000000000000000000000000000000000000000000600052602260045260246000fd5b6000601f19601f8301169050919050565b7f506c656173652073656e642076616c75652067726561746572207468616e2030600082015250565b61109281610efd565b811461109d57600080fd5b5056fea2646970667358221220a38525f241ac02a213273a8b2b368cf2766cb36c4ed608f494ed06584870052e64736f6c63430008040033",
  "linkReferences": {},
  "deployedLinkReferences": {}
}