{
  "_format": "hh-sol-artifact-1",
  "contractName": "UniswapInteraction",
  "sourceName": "contracts/UniswapInteraction.sol",
  "abi": [
    {
      "anonymous": false,
      "inputs": [
        {
          "indexed": false,
          "internalType": "string",
          "name": "message",
          "type": "string"
        },
        {
          "indexed": false,
          "internalType": "uint256",
          "name": "amountTokenA",
          "type": "uint256"
        },
        {
          "indexed": false,
          "internalType": "uint256",
          "name": "amountTokenB",
          "type": "uint256"
        },
        {
          "indexed": false,
          "internalType": "uint256",
          "name": "liquidity",
          "type": "uint256"
        }
      ],
      "name": "AddedLiquidity",
      "type": "event"
    },
    {
      "anonymous": false,
      "inputs": [
        {
          "indexed": false,
          "internalType": "string",
          "name": "message",
          "type": "string"
        },
        {
          "indexed": false,
          "internalType": "uint256",
          "name": "amountTokenA",
          "type": "uint256"
        },
        {
          "indexed": false,
          "internalType": "uint256",
          "name": "amountTokenB",
          "type": "uint256"
        }
      ],
      "name": "RemovedLiquidity",
      "type": "event"
    },
    {
      "inputs": [
        {
          "internalType": "address",
          "name": "tokenA",
          "type": "address"
        },
        {
          "internalType": "address",
          "name": "tokenB",
          "type": "address"
        },
        {
          "internalType": "uint256",
          "name": "amountA",
          "type": "uint256"
        },
        {
          "internalType": "uint256",
          "name": "amountB",
          "type": "uint256"
        }
      ],
      "name": "addLiquidity",
      "outputs": [],
      "stateMutability": "nonpayable",
      "type": "function"
    },
    {
      "inputs": [
        {
          "internalType": "address",
          "name": "_tokenA",
          "type": "address"
        },
        {
          "internalType": "uint256",
          "name": "_amountA",
          "type": "uint256"
        },
        {
          "internalType": "address",
          "name": "_tokenB",
          "type": "address"
        }
      ],
      "name": "addOptimalLiquidity",
      "outputs": [],
      "stateMutability": "nonpayable",
      "type": "function"
    },
    {
      "inputs": [
        {
          "internalType": "address",
          "name": "_tokenA",
          "type": "address"
        },
        {
          "internalType": "uint256",
          "name": "_amountA",
          "type": "uint256"
        },
        {
          "internalType": "address",
          "name": "_tokenB",
          "type": "address"
        }
      ],
      "name": "addSubOptimalLiquidity",
      "outputs": [],
      "stateMutability": "nonpayable",
      "type": "function"
    },
    {
      "inputs": [
        {
          "internalType": "uint256",
          "name": "r",
          "type": "uint256"
        },
        {
          "internalType": "uint256",
          "name": "a",
          "type": "uint256"
        }
      ],
      "name": "calculateOptimalSwapAmount",
      "outputs": [
        {
          "internalType": "uint256",
          "name": "",
          "type": "uint256"
        }
      ],
      "stateMutability": "pure",
      "type": "function"
    },
    {
      "inputs": [
        {
          "internalType": "address",
          "name": "tokenFrom",
          "type": "address"
        },
        {
          "internalType": "address",
          "name": "tokenTo",
          "type": "address"
        },
        {
          "internalType": "uint256",
          "name": "amountFrom",
          "type": "uint256"
        }
      ],
      "name": "getMinOutputAmount",
      "outputs": [
        {
          "internalType": "uint256",
          "name": "",
          "type": "uint256"
        }
      ],
      "stateMutability": "view",
      "type": "function"
    },
    {
      "inputs": [
        {
          "internalType": "address",
          "name": "tokenFrom",
          "type": "address"
        },
        {
          "internalType": "address",
          "name": "tokenTo",
          "type": "address"
        },
        {
          "internalType": "uint256",
          "name": "amountFrom",
          "type": "uint256"
        },
        {
          "internalType": "uint256",
          "name": "minAmountTo",
          "type": "uint256"
        },
        {
          "internalType": "address",
          "name": "recipient",
          "type": "address"
        }
      ],
      "name": "performSwap",
      "outputs": [],
      "stateMutability": "nonpayable",
      "type": "function"
    },
    {
      "inputs": [
        {
          "internalType": "address",
          "name": "tokenA",
          "type": "address"
        },
        {
          "internalType": "address",
          "name": "tokenB",
          "type": "address"
        }
      ],
      "name": "removeLiquidity",
      "outputs": [],
      "stateMutability": "nonpayable",
      "type": "function"
    },
    {
      "inputs": [
        {
          "internalType": "address",
          "name": "_tokenA",
          "type": "address"
        },
        {
          "internalType": "address",
          "name": "_tokenB",
          "type": "address"
        }
      ],
      "name": "retrievePair",
      "outputs": [
        {
          "internalType": "address",
          "name": "",
          "type": "address"
        }
      ],
      "stateMutability": "view",
      "type": "function"
    }
  ],
  "bytecode": "0x608060405234801561001057600080fd5b50611d2f806100206000396000f3fe608060405234801561001057600080fd5b50600436106100885760003560e01c8063c74a8db51161005b578063c74a8db5146100f1578063cef09b1814610111578063cf6c62ea14610124578063f664758f1461013757610088565b806329946f3a1461008d5780635b29bfcc146100b657806360320772146100c95780639cf38f7c146100de575b600080fd5b6100a061009b366004611952565b61014a565b6040516100ad9190611bc1565b60405180910390f35b6100a06100c43660046116f9565b6101ab565b6100dc6100d736600461177e565b61046c565b005b6100dc6100ec3660046116c1565b610809565b6101046100ff3660046116c1565b610a80565b6040516100ad9190611a06565b6100dc61011f3660046117dc565b610b0c565b6100dc610132366004611739565b610dd3565b6100dc6101453660046117dc565b6110d9565b60006107ca61019a61015e856107cd611186565b61019461018f61017187623cda20611186565b61017e89623cda29611186565b6101889190611c27565b8890611186565b611192565b90611202565b6101a49190611c3f565b9392505050565b600060606001600160a01b038516737b79995e5f793a07bc00c21412e50ecae098e7f914806101f657506001600160a01b038416737b79995e5f793a07bc00c21412e50ecae098e7f9145b156102a4576040805160028082526060820183529091602083019080368337019050509050848160008151811061023d57634e487b7160e01b600052603260045260246000fd5b60200260200101906001600160a01b031690816001600160a01b031681525050838160018151811061027f57634e487b7160e01b600052603260045260246000fd5b60200260200101906001600160a01b031690816001600160a01b0316815250506103a0565b60408051600380825260808201909252906020820160608036833701905050905084816000815181106102e757634e487b7160e01b600052603260045260246000fd5b60200260200101906001600160a01b031690816001600160a01b031681525050737b79995e5f793a07bc00c21412e50ecae098e7f98160018151811061033d57634e487b7160e01b600052603260045260246000fd5b60200260200101906001600160a01b031690816001600160a01b031681525050838160028151811061037f57634e487b7160e01b600052603260045260246000fd5b60200260200101906001600160a01b031690816001600160a01b0316815250505b60405163d06ca61f60e01b8152600090600080516020611cda8339815191529063d06ca61f906103d69087908690600401611bca565b60006040518083038186803b1580156103ee57600080fd5b505afa158015610402573d6000803e3d6000fd5b505050506040513d6000823e601f3d908101601f1916820160405261042a919081019061181d565b9050806001835161043b9190611c7e565b8151811061045957634e487b7160e01b600052603260045260246000fd5b6020026020010151925050509392505050565b6040516323b872dd60e01b81526001600160a01b038616906323b872dd9061049c90339030908890600401611a34565b602060405180830381600087803b1580156104b657600080fd5b505af11580156104ca573d6000803e3d6000fd5b505050506040513d601f19601f820116820180604052508101906104ee91906118d7565b5060405163095ea7b360e01b81526001600160a01b0386169063095ea7b39061052b90600080516020611cda833981519152908790600401611ae1565b602060405180830381600087803b15801561054557600080fd5b505af1158015610559573d6000803e3d6000fd5b505050506040513d601f19601f8201168201806040525081019061057d91906118d7565b5060606001600160a01b038616737b79995e5f793a07bc00c21412e50ecae098e7f914806105c757506001600160a01b038516737b79995e5f793a07bc00c21412e50ecae098e7f9145b15610675576040805160028082526060820183529091602083019080368337019050509050858160008151811061060e57634e487b7160e01b600052603260045260246000fd5b60200260200101906001600160a01b031690816001600160a01b031681525050848160018151811061065057634e487b7160e01b600052603260045260246000fd5b60200260200101906001600160a01b031690816001600160a01b031681525050610771565b60408051600380825260808201909252906020820160608036833701905050905085816000815181106106b857634e487b7160e01b600052603260045260246000fd5b60200260200101906001600160a01b031690816001600160a01b031681525050737b79995e5f793a07bc00c21412e50ecae098e7f98160018151811061070e57634e487b7160e01b600052603260045260246000fd5b60200260200101906001600160a01b031690816001600160a01b031681525050848160028151811061075057634e487b7160e01b600052603260045260246000fd5b60200260200101906001600160a01b031690816001600160a01b0316815250505b6040516338ed173960e01b8152600080516020611cda833981519152906338ed1739906107aa9087908790869088904290600401611beb565b600060405180830381600087803b1580156107c457600080fd5b505af11580156107d8573d6000803e3d6000fd5b505050506040513d6000823e601f3d908101601f19168201604052610800919081019061181d565b50505050505050565b60405163e6a4390560e01b8152600090737e0987e5b3a30e3f2828572bb659a548460a30039063e6a43905906108459086908690600401611a1a565b60206040518083038186803b15801561085d57600080fd5b505afa158015610871573d6000803e3d6000fd5b505050506040513d601f19601f8201168201806040525081019061089591906116a5565b90506000816001600160a01b03166370a08231306040518263ffffffff1660e01b81526004016108c59190611a06565b60206040518083038186803b1580156108dd57600080fd5b505afa1580156108f1573d6000803e3d6000fd5b505050506040513d601f19601f82011682018060405250810190610915919061193a565b60405163095ea7b360e01b81529091506001600160a01b0383169063095ea7b39061095490600080516020611cda833981519152908590600401611ae1565b602060405180830381600087803b15801561096e57600080fd5b505af1158015610982573d6000803e3d6000fd5b505050506040513d601f19601f820116820180604052508101906109a691906118d7565b50604051635d5155ef60e11b81526000908190600080516020611cda8339815191529063baa2abde906109ea90899089908890600190819030904290600401611a58565b6040805180830381600087803b158015610a0357600080fd5b505af1158015610a17573d6000803e3d6000fd5b505050506040513d601f19601f82011682018060405250810190610a3b9190611973565b915091507ff2ec5d18adfa17c1d56f3afc497123d5370b54ccd8007fa72b18b946ae3249898282604051610a70929190611b46565b60405180910390a1505050505050565b60405163e6a4390560e01b8152600090737e0987e5b3a30e3f2828572bb659a548460a30039063e6a4390590610abc9086908690600401611a1a565b60206040518083038186803b158015610ad457600080fd5b505afa158015610ae8573d6000803e3d6000fd5b505050506040513d601f19601f820116820180604052508101906101a491906116a5565b6001600160a01b038316737b79995e5f793a07bc00c21412e50ecae098e7f91480610b5357506001600160a01b038116737b79995e5f793a07bc00c21412e50ecae098e7f9145b610b785760405162461bcd60e51b8152600401610b6f90611b8a565b60405180910390fd5b6040516323b872dd60e01b81526001600160a01b038416906323b872dd90610ba890339030908790600401611a34565b602060405180830381600087803b158015610bc257600080fd5b505af1158015610bd6573d6000803e3d6000fd5b505050506040513d601f19601f82011682018060405250810190610bfa91906118d7565b5060405163e6a4390560e01b8152600090737e0987e5b3a30e3f2828572bb659a548460a30039063e6a4390590610c379087908690600401611a1a565b60206040518083038186803b158015610c4f57600080fd5b505afa158015610c63573d6000803e3d6000fd5b505050506040513d601f19601f82011682018060405250810190610c8791906116a5565b9050600080826001600160a01b0316630902f1ac6040518163ffffffff1660e01b815260040160606040518083038186803b158015610cc557600080fd5b505afa158015610cd9573d6000803e3d6000fd5b505050506040513d601f19601f82011682018060405250810190610cfd91906118f7565b506001600160701b031691506001600160701b031691506000866001600160a01b0316846001600160a01b0316630dfe16816040518163ffffffff1660e01b815260040160206040518083038186803b158015610d5957600080fd5b505afa158015610d6d573d6000803e3d6000fd5b505050506040513d601f19601f82011682018060405250810190610d9191906116a5565b6001600160a01b03161415610db157610daa838761014a565b9050610dbe565b610dbb828761014a565b90505b610dc987868361120e565b61080087866113d1565b6040516323b872dd60e01b81526001600160a01b038516906323b872dd90610e0390339030908790600401611a34565b602060405180830381600087803b158015610e1d57600080fd5b505af1158015610e31573d6000803e3d6000fd5b505050506040513d601f19601f82011682018060405250810190610e5591906118d7565b506040516323b872dd60e01b81526001600160a01b038416906323b872dd90610e8690339030908690600401611a34565b602060405180830381600087803b158015610ea057600080fd5b505af1158015610eb4573d6000803e3d6000fd5b505050506040513d601f19601f82011682018060405250810190610ed891906118d7565b5060405163095ea7b360e01b81526001600160a01b0385169063095ea7b390610f1590600080516020611cda833981519152908690600401611ae1565b602060405180830381600087803b158015610f2f57600080fd5b505af1158015610f43573d6000803e3d6000fd5b505050506040513d601f19601f82011682018060405250810190610f6791906118d7565b5060405163095ea7b360e01b81526001600160a01b0384169063095ea7b390610fa490600080516020611cda833981519152908590600401611ae1565b602060405180830381600087803b158015610fbe57600080fd5b505af1158015610fd2573d6000803e3d6000fd5b505050506040513d601f19601f82011682018060405250810190610ff691906118d7565b5060405162e8e33760e81b815260009081908190600080516020611cda8339815191529063e8e337009061103d908a908a908a908a90600190819030904290600401611a98565b606060405180830381600087803b15801561105757600080fd5b505af115801561106b573d6000803e3d6000fd5b505050506040513d601f19601f8201168201806040525081019061108f9190611996565b9250925092507fadbd682d99d47e209acbc94c7783ac0bb269cd38f679131c6d0d97d413048f9a8383836040516110c893929190611afa565b60405180910390a150505050505050565b6040516323b872dd60e01b81526001600160a01b038416906323b872dd9061110990339030908790600401611a34565b602060405180830381600087803b15801561112357600080fd5b505af1158015611137573d6000803e3d6000fd5b505050506040513d601f19601f8201168201806040525081019061115b91906118d7565b506000611169836002611682565b905061117684838361120e565b61118084836113d1565b50505050565b60006101a48284611c5f565b600060038211156111f357508060006111ac600283611c3f565b6111b7906001611c27565b90505b818110156111ed579050806002816111d28186611c3f565b6111dc9190611c27565b6111e69190611c3f565b90506111ba565b506111fd565b81156111fd575060015b919050565b60006101a48284611c7e565b60405163095ea7b360e01b81526001600160a01b0384169063095ea7b39061124a90600080516020611cda833981519152908590600401611ae1565b602060405180830381600087803b15801561126457600080fd5b505af1158015611278573d6000803e3d6000fd5b505050506040513d601f19601f8201168201806040525081019061129c91906118d7565b5060408051600280825260608201835260009260208301908036833701905050905083816000815181106112e057634e487b7160e01b600052603260045260246000fd5b60200260200101906001600160a01b031690816001600160a01b031681525050828160018151811061132257634e487b7160e01b600052603260045260246000fd5b6001600160a01b03909216602092830291909101909101526040516338ed173960e01b8152600080516020611cda833981519152906338ed173990611374908590600190869030904290600401611beb565b600060405180830381600087803b15801561138e57600080fd5b505af11580156113a2573d6000803e3d6000fd5b505050506040513d6000823e601f3d908101601f191682016040526113ca919081019061181d565b5050505050565b6040516370a0823160e01b81526000906001600160a01b038416906370a0823190611400903090600401611a06565b60206040518083038186803b15801561141857600080fd5b505afa15801561142c573d6000803e3d6000fd5b505050506040513d601f19601f82011682018060405250810190611450919061193a565b90506000826001600160a01b03166370a08231306040518263ffffffff1660e01b81526004016114809190611a06565b60206040518083038186803b15801561149857600080fd5b505afa1580156114ac573d6000803e3d6000fd5b505050506040513d601f19601f820116820180604052508101906114d0919061193a565b60405163095ea7b360e01b81529091506001600160a01b0385169063095ea7b39061150f90600080516020611cda833981519152908690600401611ae1565b602060405180830381600087803b15801561152957600080fd5b505af115801561153d573d6000803e3d6000fd5b505050506040513d601f19601f8201168201806040525081019061156191906118d7565b5060405163095ea7b360e01b81526001600160a01b0384169063095ea7b39061159e90600080516020611cda833981519152908590600401611ae1565b602060405180830381600087803b1580156115b857600080fd5b505af11580156115cc573d6000803e3d6000fd5b505050506040513d601f19601f820116820180604052508101906115f091906118d7565b5060405162e8e33760e81b8152600080516020611cda8339815191529063e8e3370090611630908790879087908790600090819030904290600401611a98565b606060405180830381600087803b15801561164a57600080fd5b505af115801561165e573d6000803e3d6000fd5b505050506040513d601f19601f820116820180604052508101906108009190611996565b60006101a48284611c3f565b80516001600160701b03811681146111fd57600080fd5b6000602082840312156116b6578081fd5b81516101a481611cc1565b600080604083850312156116d3578081fd5b82356116de81611cc1565b915060208301356116ee81611cc1565b809150509250929050565b60008060006060848603121561170d578081fd5b833561171881611cc1565b9250602084013561172881611cc1565b929592945050506040919091013590565b6000806000806080858703121561174e578081fd5b843561175981611cc1565b9350602085013561176981611cc1565b93969395505050506040820135916060013590565b600080600080600060a08688031215611795578081fd5b85356117a081611cc1565b945060208601356117b081611cc1565b9350604086013592506060860135915060808601356117ce81611cc1565b809150509295509295909350565b6000806000606084860312156117f0578283fd5b83356117fb81611cc1565b925060208401359150604084013561181281611cc1565b809150509250925092565b6000602080838503121561182f578182fd5b825167ffffffffffffffff80821115611846578384fd5b818501915085601f830112611859578384fd5b81518181111561186b5761186b611cab565b8381026040518582820101818110858211171561188a5761188a611cab565b604052828152858101935084860182860187018a10156118a8578788fd5b8795505b838610156118ca5780518552600195909501949386019386016118ac565b5098975050505050505050565b6000602082840312156118e8578081fd5b815180151581146101a4578182fd5b60008060006060848603121561190b578283fd5b6119148461168e565b92506119226020850161168e565b9150604084015163ffffffff81168114611812578182fd5b60006020828403121561194b578081fd5b5051919050565b60008060408385031215611964578182fd5b50508035926020909101359150565b60008060408385031215611985578182fd5b505080516020909101519092909150565b6000806000606084860312156119aa578081fd5b8351925060208401519150604084015190509250925092565b6000815180845260208085019450808401835b838110156119fb5781516001600160a01b0316875295820195908201906001016119d6565b509495945050505050565b6001600160a01b0391909116815260200190565b6001600160a01b0392831681529116602082015260400190565b6001600160a01b039384168152919092166020820152604081019190915260600190565b6001600160a01b039788168152958716602087015260408601949094526060850192909252608084015290921660a082015260c081019190915260e00190565b6001600160a01b039889168152968816602088015260408701959095526060860193909352608085019190915260a084015290921660c082015260e08101919091526101000190565b6001600160a01b03929092168252602082015260400190565b6080808252601c908201527f6c6971756964697479206164646564207375636365737366756c6c790000000060a082015260208101939093526040830191909152606082015260c00190565b6060808252601e908201527f6c69717569646974792072656d6f766564207375636365737366756c6c79000060808201526020810192909252604082015260a00190565b60208082526019908201527f546f6b656e2041206f722042206d757374206265205745544800000000000000604082015260600190565b90815260200190565b600083825260406020830152611be360408301846119c3565b949350505050565b600086825285602083015260a06040830152611c0a60a08301866119c3565b6001600160a01b0394909416606083015250608001529392505050565b60008219821115611c3a57611c3a611c95565b500190565b600082611c5a57634e487b7160e01b81526012600452602481fd5b500490565b6000816000190483118215151615611c7957611c79611c95565b500290565b600082821015611c9057611c90611c95565b500390565b634e487b7160e01b600052601160045260246000fd5b634e487b7160e01b600052604160045260246000fd5b6001600160a01b0381168114611cd657600080fd5b5056fe000000000000000000000000c532a74256d3db42d0bf7a0400fefdbad7694008a26469706673582212202af8b3a03572b47aa29d2bedd42d308b069989dcf9db297c1fc51113a9b596df64736f6c63430008000033",
  "linkReferences": {},
  "deployedLinkReferences": {}
}